:02000000AB282B
:10000600710DF80DF90D7408F8027508031C750FCB
:10001600F902F00DF10D0F30FC00710DF80DF90D20
:100026007408701C1C28F8027508031C750FF90269
:100036002128F80775080318750FF907F00DF10D5B
:10004600FC0B102870182D287408F807750803187B
:08005600750FF9070000080016
:0E005E00831203132D088A002C08820008006C
:10006C002F208A110A128000840AAC0A0319AD0AE7
:08007C00F003031D3628080003
:10008400831203137408003A031D51287508003ABB
:10009400031D5128FF30F0007F30F100AA2883129D
:1000A4000313FD01F901F801710870040319003408
:1000B40071087506FA00FA1BFD09FB01F51F672894
:1000C400F409F509F40A0319F50AF11F6E28F00979
:1000D400F109F00A0319F10A71087504FA00FA1B10
:1000E400832803207B189628FD1F0034F009F109AA
:1000F400F00A0319F10AF809F909F80A0319F90AC7
:100104000034F51F9228F11B8E287108F90070083D
:10011400F800F101F0017628F101F001F00A003451
:10012400F109F009FB0A7328F80A0319F90A74089B
:100134007802031D762875087902031D7628F901D3
:10014400F801F00A0319F10AF11F76280000FF34C0
:020154000800A1
:1001560083120313A001A101C030A200F930A3004D
:10016600A430A400B030A5009930A6009230A700B4
:100176008330A800F830A9008030AA009030AB0088
:1001860083168801FF308312880080302106F00034
:1001960080307002031DD1280A3020020318FC2883
:1001A6002008223E8400000888000B30FB00263021
:1001B600FC005D30FD00FD0BDE28FC0BDE28FB0B92
:1001C600DE28000000002008013EF0000030031881
:1001D600013E2107F1000A30F4000030F50042200C
:1001E6007808F0007908F1007008A0007108A100F5
:0401F600C828FC28F1
:02400E004A2F37
:00000001FF
