:02000000762860
:1000060083120313FB01FA01F9018030F800F10CA9
:10001600F00C031C17287408F90775080318750FE8
:10002600FA070318FB0A0310F01F1F287408FA07C3
:1000360075080318750FFB07FB0CFA0CF90CF80C86
:10004600031C0A287B08F3007A08F2007908F100FD
:060056007808F00008002C
:0C005C008312031395011712971208007D
:10006800831603130711831212150C309704080026
:10007800831603131208013EF000F1010318F10A78
:1000880083122308F400F50103200630F2007008FB
:10009800F4007108F500720803195728F50CF40CE0
:1000A800F513FF3E50280430F1007408F000710881
:1000B80003196228F00D7010FF3E5C28303070057F
:1000C800F3007408F0007508F100F10CF00CF1135E
:1000D800F10CF00CF113700895000F3097057308B8
:0400E8009704080071
:1000EC0083120313A20183168601FF30880083124A
:1000FC008601061486101214921063308316920037
:10010C002E2034202208A3003C20081CBC28803060
:10011C00A21B7F30F00080307002031D9728FA304C
:10012C0022020318BC280230FB000430FC00BA3059
:10013C00FD00FD0B9F28FC0B9F28FB0B9F2800004C
:10014C00081CBC288030A21B7F30F000803070026D
:10015C00031DB228FA3022020318BC280A302207E9
:10016C00F0007008A2007008A3003C20881CE52851
:10017C008030003AF0008030220670020318E52827
:10018C000230FB000430FC00BA30FD00FD0BCC2823
:10019C00FC0BCC28FB0BCC280000881CE5288030FD
:1001AC00003AF0008030220670020318E5280A306D
:1001BC002202F0007008A2007008A3003C208B28DB
:0201CC00E62823
:02400E004A2F37
:00000001FF
