:02000000D62800
:10000600710DF80DF90D7408F8027508031C750FCB
:10001600F902F00DF10D0F30FC00710DF80DF90D20
:100026007408701C1C28F8027508031C750FF90269
:100036002128F80775080318750FF907F00DF10D5B
:10004600FC0B102870182D287408F807750803187B
:08005600750FF9070000080016
:0E005E00831203132B088A002A088200080070
:10006C0083120313FB01FA01F9018030F800F10C43
:10007C00F00C031C4A287408F90775080318750F4F
:10008C00FA070318FB0A0310F01F52287408FA072A
:10009C0075080318750FFB07FB0CFA0CF90CF80C20
:1000AC00031C3D287B08F3007A08F2007908F10064
:0600BC007808F0000800C6
:1000C2002F208A110A128000840AAA0A0319AB0A95
:0800D200F003031D6128080082
:1000DA00831203137408003A031D7C287508003A3A
:1000EA00031D7C28FF30F0007F30F100D5288312F1
:1000FA000313FD01F901F8017108700403190034B2
:10010A0071087506FA00FA1BFD09FB01F51F922812
:10011A00F409F509F40A0319F50AF11F9928F009F7
:10012A00F109F00A0319F10A71087504FA00FA1BB9
:10013A00AE2803207B18C128FD1F0034F009F109FD
:10014A00F00A0319F10AF809F909F80A0319F90A70
:10015A000034F51FBD28F11BB9287108F900700891
:10016A00F800F101F001A128F101F001F00A0034D0
:10017A00F109F009FB0A9E28F80A0319F90A74081A
:10018A007802031DA12875087902031DA128F90127
:10019A00F801F00A0319F10AF11FA1280000FF343F
:0201AA0008004B
:1001AC00C03083120313A000F930A100A430A200C8
:1001BC00B030A3009930A4009230A5008330A60083
:1001CC00F830A7008030A8009030A900B401B50128
:1001DC00831686018701FF30880083128601870110
:1001EC003408B2003508B3003208B4003308B50047
:1001FC00E830F4000330F5003208F0003308F10069
:10020C006D207008B8007108B9003808F000390882
:10021C00F100E830F4000330F500362070083202AB
:10022C00B6007108031C013E3302B7003608B40057
:10023C003708B5006430F4000030F5003608F000E3
:10024C003708F1006D207008AC007108AD00643007
:10025C00F4000030F50036207008B602031CB7031A
:10026C007108B7023608B4003708B5000A30F4003C
:10027C000030F5003608F0003708F1006D207008EA
:10028C00AE007108AF000A30F4000030F5003608FB
:10029C00F0003708F1006D207808F0007908F100C3
:1002AC007008B0007108B1003808203E84000008C6
:1002BC00860007140D30FC00FB30FD00FD0B64299B
:1002CC00FC0B64290000000007102C08203E840061
:1002DC000008860087140D30FC00FB30FD00FD0B80
:1002EC007529FC0B75290000000087102E08203E94
:1002FC0084000008860007150D30FC00FB30FD0063
:10030C00FD0B8629FC0B8629000000000711300824
:10031C00203E84000008860087150D30FC00FB3061
:10032C00FD00FD0B9729FC0B97290000000087119D
:10033C003430FC00F130FD00FD0BA229FC0BA2298E
:0E034C0000000000B20A0319B30AFA28AC2917
:02400E004A2F37
:00000001FF
