:020000000329D2
:0E000600213083120313FD00FD0B07280800B4
:100014000F3083120313FC004730FD00FD0B102842
:0A002400FC0B10280000000008008B
:06002E00000000000800C4
:1000340083120313EE1B20288612212886166E1BBA
:100044002528061226280616EE1A2A2886112B2899
:1000540086156E1A2F2806113028061562183428C2
:10006400061435280610861417208610EE193C282D
:1000740086123D2886166E19412806124228061655
:10008400EE1846288611472886156E184B28061147
:100094004C28061562185028061451280610861498
:1000A40017208610621C58280A20592803200800AB
:0E00B4008312031364088A00630882000800A8
:1000C2008312031362106D08EE001A2062140800F6
:1000D2008316031386100610061186110612861265
:1000E20083128610061086120612861106110A2045
:1000F2000A200A20861506158614172086100A2063
:100102008614172086100A208614172086100A20CB
:1001120006118614172086100A20861417208610CE
:10012200861186168614172086100A208612061556
:1001320086141720861006118614172086100A20AE
:1001420086141720861006158614172086100A209A
:1001520006118614172086108616061686150615B1
:0C0162008614172086100A206214080082
:10016E00C928803083120313E900DC28C030E9006F
:10017E00DC289430E900DC28D430E900DC2880301B
:10018E00E900DC28831203136908013A0319B82821
:10019E006908023A0319BD286908033A0319C028F1
:1001AE006908043A0319C328C6286A03F0006908CF
:1001BE00F0077008E9007008EE001A206210EC01DA
:1001CE006C086B07840000080319F5286C086B0790
:1001DE0084000008ED006120EC0AE7286214080094
:1001EE005A208A110A128000840AE30A0319E40ACB
:0801FE00F003031DF7280800BF
:10020600CE2183120313E501E601E701E80106307A
:1002160083169F0007309C0069200130EE001A20EB
:100226000C30EE001A200130E9000130EA004330BC
:10023600EB00B7200230E9000130EA002030EB0085
:10024600B720E501E60180306606F00080307002D6
:10025600031D2F2927306502031854290330FB009C
:100266008A30FC005530FD00FD0B3729FC0B372981
:10027600FB0B3729000000001830EE001A2003306F
:10028600FB008A30FC005530FD00FD0B4829FC0BB5
:100296004829FB0B482900000000E50A0319E60A75
:1002A6002629E701E80180306806F00080307002F8
:1002B600031D5F2927306702031884290330FB00DA
:1002C6008A30FC005530FD00FD0B6729FC0B6729C1
:1002D600FB0B6729000000001C30EE001A200330DB
:1002E600FB008A30FC005530FD00FD0B7829FC0B25
:1002F6007829FB0B782900000000E70A0319E80AB1
:0603060056292429852977
:10039C0020308400423083120313F0008B30E300D2
:0803AC000130E400F720080015
:100316004D346434203441346E3461346E34643484
:10032600613420344D34693461342C3420345234F1
:100336002D343134383430343134333435342C348C
:10034600203453343A3432343034313437342D3463
:060356003134383400349C
:10035C0043346F346D3470347534743465347234A2
:10036C00203453346334693465346E346334653407
:10037C0020342634203445346E34673469346E347A
:0E038C0065346534723469346E34673400347D
:02400E004A2F37
:00000001FF
